{
  "_format": "hh-sol-artifact-1",
  "contractName": "Exchange",
  "sourceName": "src/V1/Exchange.sol",
  "abi": [
    {
      "inputs": [
        {
          "internalType": "address",
          "name": "_token",
          "type": "address"
        }
      ],
      "stateMutability": "nonpayable",
      "type": "constructor"
    },
    {
      "inputs": [
        {
          "internalType": "uint256",
          "name": "_tokenAmount",
          "type": "uint256"
        }
      ],
      "name": "addLiquidity",
      "outputs": [],
      "stateMutability": "payable",
      "type": "function"
    },
    {
      "inputs": [],
      "name": "getReserve",
      "outputs": [
        {
          "internalType": "uint256",
          "name": "",
          "type": "uint256"
        }
      ],
      "stateMutability": "view",
      "type": "function"
    },
    {
      "inputs": [],
      "name": "tokenAddress",
      "outputs": [
        {
          "internalType": "address",
          "name": "",
          "type": "address"
        }
      ],
      "stateMutability": "view",
      "type": "function"
    }
  ],
  "bytecode": "0x608060405234801561001057600080fd5b506040516106213803806106218339818101604052810190610032919061014a565b600073ffffffffffffffffffffffffffffffffffffffff168173ffffffffffffffffffffffffffffffffffffffff16036100a1576040517f08c379a0000000000000000000000000000000000000000000000000000000008152600401610098906101d4565b60405180910390fd5b806000806101000a81548173ffffffffffffffffffffffffffffffffffffffff021916908373ffffffffffffffffffffffffffffffffffffffff160217905550506101f4565b600080fd5b600073ffffffffffffffffffffffffffffffffffffffff82169050919050565b6000610117826100ec565b9050919050565b6101278161010c565b811461013257600080fd5b50565b6000815190506101448161011e565b92915050565b6000602082840312156101605761015f6100e7565b5b600061016e84828501610135565b91505092915050565b600082825260208201905092915050565b7f696e76616c696420746f6b656e20616464726573730000000000000000000000600082015250565b60006101be601583610177565b91506101c982610188565b602082019050919050565b600060208201905081810360008301526101ed816101b1565b9050919050565b61041e806102036000396000f3fe6080604052600436106100345760003560e01c806351c6590a1461003957806359bf5d39146100555780639d76ea5814610080575b600080fd5b610053600480360381019061004e9190610257565b6100ab565b005b34801561006157600080fd5b5061006a610156565b6040516100779190610293565b60405180910390f35b34801561008c57600080fd5b506100956101f8565b6040516100a291906102ef565b60405180910390f35b60008060009054906101000a900473ffffffffffffffffffffffffffffffffffffffff1690508073ffffffffffffffffffffffffffffffffffffffff166323b872dd3330856040518463ffffffff1660e01b815260040161010e9392919061030a565b6020604051808303816000875af115801561012d573d6000803e3d6000fd5b505050506040513d601f19601f820116820180604052508101906101519190610379565b505050565b60008060009054906101000a900473ffffffffffffffffffffffffffffffffffffffff1673ffffffffffffffffffffffffffffffffffffffff166370a08231306040518263ffffffff1660e01b81526004016101b291906102ef565b602060405180830381865afa1580156101cf573d6000803e3d6000fd5b505050506040513d601f19601f820116820180604052508101906101f391906103bb565b905090565b60008054906101000a900473ffffffffffffffffffffffffffffffffffffffff1681565b600080fd5b6000819050919050565b61023481610221565b811461023f57600080fd5b50565b6000813590506102518161022b565b92915050565b60006020828403121561026d5761026c61021c565b5b600061027b84828501610242565b91505092915050565b61028d81610221565b82525050565b60006020820190506102a86000830184610284565b92915050565b600073ffffffffffffffffffffffffffffffffffffffff82169050919050565b60006102d9826102ae565b9050919050565b6102e9816102ce565b82525050565b600060208201905061030460008301846102e0565b92915050565b600060608201905061031f60008301866102e0565b61032c60208301856102e0565b6103396040830184610284565b949350505050565b60008115159050919050565b61035681610341565b811461036157600080fd5b50565b6000815190506103738161034d565b92915050565b60006020828403121561038f5761038e61021c565b5b600061039d84828501610364565b91505092915050565b6000815190506103b58161022b565b92915050565b6000602082840312156103d1576103d061021c565b5b60006103df848285016103a6565b9150509291505056fea2646970667358221220f70623a7af0f917c78305810a2e97a49d8ed64e66d82fc7eab7c470eb942049e64736f6c63430008130033",
  "linkReferences": {},
  "deployedLinkReferences": {}
}